{
  "contractName": "Transactions",
  "abi": [
    {
      "constant": true,
      "inputs": [
        {
          "name": "",
          "type": "uint256"
        }
      ],
      "name": "logs",
      "outputs": [
        {
          "name": "message",
          "type": "string"
        },
        {
          "name": "timestamp",
          "type": "uint256"
        },
        {
          "name": "sender",
          "type": "address"
        }
      ],
      "payable": false,
      "stateMutability": "view",
      "type": "function",
      "signature": "0xe79899bd"
    },
    {
      "anonymous": false,
      "inputs": [
        {
          "indexed": true,
          "name": "sender",
          "type": "address"
        },
        {
          "indexed": false,
          "name": "message",
          "type": "string"
        },
        {
          "indexed": false,
          "name": "timestamp",
          "type": "uint256"
        }
      ],
      "name": "TransactionAdded",
      "type": "event",
      "signature": "0xf9548a9667c9caa7ef622cce3ec3f875196c55075f95b5c4a0e505637fed0b9c"
    },
    {
      "constant": false,
      "inputs": [
        {
          "name": "_message",
          "type": "string"
        }
      ],
      "name": "addTransaction",
      "outputs": [],
      "payable": false,
      "stateMutability": "nonpayable",
      "type": "function",
      "signature": "0x517715f0"
    },
    {
      "constant": true,
      "inputs": [],
      "name": "getAllTransactions",
      "outputs": [
        {
          "components": [
            {
              "name": "message",
              "type": "string"
            },
            {
              "name": "timestamp",
              "type": "uint256"
            },
            {
              "name": "sender",
              "type": "address"
            }
          ],
          "name": "",
          "type": "tuple[]"
        }
      ],
      "payable": false,
      "stateMutability": "view",
      "type": "function",
      "signature": "0x27506f53"
    },
    {
      "constant": true,
      "inputs": [],
      "name": "getTransactionCount",
      "outputs": [
        {
          "name": "",
          "type": "uint256"
        }
      ],
      "payable": false,
      "stateMutability": "view",
      "type": "function",
      "signature": "0x2e7700f0"
    }
  ],
  "bytecode": "0x608060405234801561001057600080fd5b506107af806100206000396000f3fe6080604052600436106100615763ffffffff7c010000000000000000000000000000000000000000000000000000000060003504166327506f5381146100665780632e7700f014610091578063517715f0146100b3578063e79899bd146100d5575b600080fd5b34801561007257600080fd5b5061007b610104565b6040516100889190610646565b60405180910390f35b34801561009d57600080fd5b506100a6610223565b60405161008891906106a4565b3480156100bf57600080fd5b506100d36100ce3660046104ef565b610229565b005b3480156100e157600080fd5b506100f56100f036600461052c565b61031c565b60405161008893929190610677565b60606000805480602002602001604051908101604052809291908181526020016000905b828210156102195760008481526020908190206040805160038602909201805460026001821615610100026000190190911604601f81018590049094028301608090810190925260608301848152929390928492909184918401828280156101d15780601f106101a6576101008083540402835291602001916101d1565b820191906000526020600020905b8154815290600101906020018083116101b457829003601f168201915b505050918352505060018281015460208084019190915260029093015473ffffffffffffffffffffffffffffffffffffffff1660409092019190915291835292019101610128565b5050505090505b90565b60005490565b60408051606081018252828152426020808301919091523392820192909252600080546001810180835591805282518051929460039092027f290decd9548b62a8d60345a988386fc84ba6bc95484008f6362f93160ef3e563019261029192849201906103f0565b50602082015160018201556040918201516002909101805473ffffffffffffffffffffffffffffffffffffffff191673ffffffffffffffffffffffffffffffffffffffff909216919091179055513391507ff9548a9667c9caa7ef622cce3ec3f875196c55075f95b5c4a0e505637fed0b9c906103119084904290610657565b60405180910390a250565b600080548290811061032a57fe5b60009182526020918290206003919091020180546040805160026001841615610100026000190190931692909204601f8101859004850283018501909152808252919350918391908301828280156103c35780601f10610398576101008083540402835291602001916103c3565b820191906000526020600020905b8154815290600101906020018083116103a657829003601f168201915b50505050600183015460029093015491929173ffffffffffffffffffffffffffffffffffffffff16905083565b828054600181600116156101000203166002900490600052602060002090601f016020900481019282601f1061043157805160ff191683800117855561045e565b8280016001018555821561045e579182015b8281111561045e578251825591602001919060010190610443565b5061046a92915061046e565b5090565b61022091905b8082111561046a5760008155600101610474565b6000601f8201831361049957600080fd5b81356104ac6104a7826106df565b6106b8565b915080825260208301602083018583830111156104c857600080fd5b6104d383828461072f565b50505092915050565b60006104e88235610220565b9392505050565b60006020828403121561050157600080fd5b813567ffffffffffffffff81111561051857600080fd5b61052484828501610488565b949350505050565b60006020828403121561053e57600080fd5b600061052484846104dc565b61055381610711565b82525050565b60006105648261070d565b8084526020840193508360208202850161057d85610707565b60005b848110156105b45783830388526105988383516105f5565b92506105a382610707565b602098909801979150600101610580565b50909695505050505050565b60006105cb8261070d565b8084526105df81602086016020860161073b565b6105e88161076b565b9093016020019392505050565b805160608084526000919084019061060d82826105c0565b9150506020830151610622602086018261063d565b506040830151610635604086018261054a565b509392505050565b61055381610220565b602080825281016104e88184610559565b6040808252810161066881856105c0565b90506104e8602083018461063d565b6060808252810161068881866105c0565b9050610697602083018561063d565b610524604083018461054a565b602081016106b2828461063d565b92915050565b60405181810167ffffffffffffffff811182821017156106d757600080fd5b604052919050565b600067ffffffffffffffff8211156106f657600080fd5b506020601f91909101601f19160190565b60200190565b5190565b600073ffffffffffffffffffffffffffffffffffffffff82166106b2565b82818337506000910152565b60005b8381101561075657818101518382015260200161073e565b83811115610765576000848401525b50505050565b601f01601f19169056fea265627a7a72305820c3994b08d5d20151a6126c0b515c781f05a39a4423537c6c030fc4172c44fc1d6c6578706572696d656e74616cf50037",
  "source": "pragma solidity ^0.5.0;\npragma experimental ABIEncoderV2;\n\ncontract Transactions {\n  struct Log {\n    string message;\n    uint timestamp;\n    address sender;\n  }\n\n  Log[] public logs;\n\n  event TransactionAdded(address indexed sender, string message, uint timestamp);\n\n  function addTransaction(string memory _message) public {\n    logs.push(Log(_message, block.timestamp, msg.sender));\n    emit TransactionAdded(msg.sender, _message, block.timestamp);\n  }\n\n  function getAllTransactions() public view returns (Log[] memory) {\n    return logs;\n  }\n\n  function getTransactionCount() public view returns (uint) {\n    return logs.length;\n  }\n}",
  "sourcePath": "/Users/sarthaksinghgaur/Blockchain-based-Transaction-Logging-dApp-using-Solidity-Ethereum-and-React/contracts/Transactions.sol",
  "compiler": {
    "name": "solc",
    "version": "0.5.0+commit.1d4f565a.Emscripten.clang"
  },
  "schemaVersion": "3.0.1",
  "updatedAt": "2025-05-28T10:41:03.787Z",
  "devdoc": {
    "methods": {}
  },
  "userdoc": {
    "methods": {}
  }
}