{
  "contractName": "TransactionLogger",
  "abi": [
    {
      "constant": true,
      "inputs": [],
      "name": "taskCount",
      "outputs": [
        {
          "name": "",
          "type": "uint256"
        }
      ],
      "payable": false,
      "stateMutability": "view",
      "type": "function",
      "signature": "0xb6cb58a5"
    }
  ],
  "bytecode": "0x608060405260008055348015601357600080fd5b50609e806100226000396000f3fe608060405260043610603f576000357c0100000000000000000000000000000000000000000000000000000000900463ffffffff168063b6cb58a5146044575b600080fd5b348015604f57600080fd5b506056606c565b6040518082815260200191505060405180910390f35b6000548156fea165627a7a72305820594a7f80c91d863612d2cd661f87047f34929c991115eb228ac28b7cb0d528300029",
  "source": "pragma solidity ^0.5.0;\n\ncontract TransactionLogger {\n  uint public taskCount = 0;\n}",
  "sourcePath": "/Users/sarthaksinghgaur/Blockchain-based-Transaction-Logging-dApp-using-Solidity-Ethereum-and-React/contracts/Transactions.sol",
  "compiler": {
    "name": "solc",
    "version": "0.5.0+commit.1d4f565a.Emscripten.clang"
  },
  "schemaVersion": "3.0.1",
  "updatedAt": "2025-05-28T04:50:52.891Z",
  "devdoc": {
    "methods": {}
  },
  "userdoc": {
    "methods": {}
  }
}