{
  "contractName": "TransactionLogger",
  "abi": [
    {
      "constant": true,
      "inputs": [],
      "name": "TransactionCount",
      "outputs": [
        {
          "name": "",
          "type": "uint256"
        }
      ],
      "payable": false,
      "stateMutability": "view",
      "type": "function"
    }
  ],
  "bytecode": "0x608060405260008055348015601357600080fd5b506099806100226000396000f3fe608060405260043610603e5763ffffffff7c01000000000000000000000000000000000000000000000000000000006000350416637f10540281146043575b600080fd5b348015604e57600080fd5b5060556067565b60408051918252519081900360200190f35b6000548156fea165627a7a7230582082990a0892fc1b15d0d5a5d9353b7f23fb0410e71a65c70cf712543500eba2830029",
  "source": "pragma solidity ^0.5.0;\n\ncontract TransactionLogger {\n  uint public TransactionCount = 0;\n}",
  "sourcePath": "/Users/sarthaksinghgaur/Blockchain-based-Transaction-Logging-dApp-using-Solidity-Ethereum-and-React/contracts/Transactions.sol",
  "compiler": {
    "name": "solc",
    "version": "0.5.0+commit.1d4f565a.Emscripten.clang"
  },
  "schemaVersion": "3.0.1",
  "updatedAt": "2025-05-28T04:54:42.993Z",
  "devdoc": {
    "methods": {}
  },
  "userdoc": {
    "methods": {}
  }
}